{
  "contractName": "Donation",
  "abi": [
    {
      "inputs": [],
      "stateMutability": "nonpayable",
      "type": "constructor"
    },
    {
      "anonymous": false,
      "inputs": [
        {
          "indexed": true,
          "internalType": "address",
          "name": "donor",
          "type": "address"
        },
        {
          "indexed": false,
          "internalType": "uint256",
          "name": "amount",
          "type": "uint256"
        },
        {
          "indexed": false,
          "internalType": "uint256",
          "name": "timestamp",
          "type": "uint256"
        }
      ],
      "name": "DonationReceived",
      "type": "event"
    },
    {
      "anonymous": false,
      "inputs": [
        {
          "indexed": true,
          "internalType": "address",
          "name": "to",
          "type": "address"
        },
        {
          "indexed": false,
          "internalType": "uint256",
          "name": "amount",
          "type": "uint256"
        },
        {
          "indexed": false,
          "internalType": "uint256",
          "name": "timestamp",
          "type": "uint256"
        }
      ],
      "name": "Withdrawal",
      "type": "event"
    },
    {
      "inputs": [],
      "name": "donorCount",
      "outputs": [
        {
          "internalType": "uint256",
          "name": "",
          "type": "uint256"
        }
      ],
      "stateMutability": "view",
      "type": "function",
      "constant": true
    },
    {
      "inputs": [
        {
          "internalType": "address",
          "name": "",
          "type": "address"
        }
      ],
      "name": "donors",
      "outputs": [
        {
          "internalType": "uint256",
          "name": "",
          "type": "uint256"
        }
      ],
      "stateMutability": "view",
      "type": "function",
      "constant": true
    },
    {
      "inputs": [],
      "name": "owner",
      "outputs": [
        {
          "internalType": "address",
          "name": "",
          "type": "address"
        }
      ],
      "stateMutability": "view",
      "type": "function",
      "constant": true
    },
    {
      "inputs": [],
      "name": "totalDonations",
      "outputs": [
        {
          "internalType": "uint256",
          "name": "",
          "type": "uint256"
        }
      ],
      "stateMutability": "view",
      "type": "function",
      "constant": true
    },
    {
      "inputs": [],
      "name": "donate",
      "outputs": [],
      "stateMutability": "payable",
      "type": "function",
      "payable": true
    },
    {
      "inputs": [
        {
          "internalType": "address payable",
          "name": "_to",
          "type": "address"
        },
        {
          "internalType": "uint256",
          "name": "_amount",
          "type": "uint256"
        }
      ],
      "name": "withdraw",
      "outputs": [],
      "stateMutability": "nonpayable",
      "type": "function"
    },
    {
      "inputs": [],
      "name": "getContractBalance",
      "outputs": [
        {
          "internalType": "uint256",
          "name": "",
          "type": "uint256"
        }
      ],
      "stateMutability": "view",
      "type": "function",
      "constant": true
    },
    {
      "inputs": [],
      "name": "getDonorCount",
      "outputs": [
        {
          "internalType": "uint256",
          "name": "",
          "type": "uint256"
        }
      ],
      "stateMutability": "view",
      "type": "function",
      "constant": true
    }
  ],
  "bytecode": "0x608060405234801561001057600080fd5b50336000806101000a81548173ffffffffffffffffffffffffffffffffffffffff021916908373ffffffffffffffffffffffffffffffffffffffff160217905550610aae806100606000396000f3fe60806040526004361061007b5760003560e01c8063ca0cdea81161004e578063ca0cdea81461012c578063de2ed89314610169578063ed88c68e14610194578063f3fef3a31461019e5761007b565b806369bc2f1e146100805780636f9fb98a146100ab5780638da5cb5b146100d6578063c407670f14610101575b600080fd5b34801561008c57600080fd5b506100956101c7565b6040516100a291906105d2565b60405180910390f35b3480156100b757600080fd5b506100c06101d1565b6040516100cd91906105d2565b60405180910390f35b3480156100e257600080fd5b506100eb6101d9565b6040516100f8919061062e565b60405180910390f35b34801561010d57600080fd5b506101166101fd565b60405161012391906105d2565b60405180910390f35b34801561013857600080fd5b50610153600480360381019061014e919061067a565b610203565b60405161016091906105d2565b60405180910390f35b34801561017557600080fd5b5061017e61021b565b60405161018b91906105d2565b60405180910390f35b61019c610221565b005b3480156101aa57600080fd5b506101c560048036038101906101c09190610711565b6103e7565b005b6000600454905090565b600047905090565b60008054906101000a900473ffffffffffffffffffffffffffffffffffffffff1681565b60045481565b60016020528060005260406000206000915090505481565b60035481565b60003411610264576040517f08c379a000000000000000000000000000000000000000000000000000000000815260040161025b906107d4565b60405180910390fd5b600260003373ffffffffffffffffffffffffffffffffffffffff1673ffffffffffffffffffffffffffffffffffffffff16815260200190815260200160002060009054906101000a900460ff16610326576001600260003373ffffffffffffffffffffffffffffffffffffffff1673ffffffffffffffffffffffffffffffffffffffff16815260200190815260200160002060006101000a81548160ff0219169083151502179055506004600081548092919061032090610823565b91905055505b34600160003373ffffffffffffffffffffffffffffffffffffffff1673ffffffffffffffffffffffffffffffffffffffff1681526020019081526020016000206000828254610375919061086b565b92505081905550346003600082825461038e919061086b565b925050819055503373ffffffffffffffffffffffffffffffffffffffff167f4b0304ab2f313234b1cea012339c8f8c3bf2c8bb357d81a579cfdb35d2e3d03034426040516103dd92919061089f565b60405180910390a2565b60008054906101000a900473ffffffffffffffffffffffffffffffffffffffff1673ffffffffffffffffffffffffffffffffffffffff163373ffffffffffffffffffffffffffffffffffffffff1614610475576040517f08c379a000000000000000000000000000000000000000000000000000000000815260040161046c9061093a565b60405180910390fd5b478111156104b8576040517f08c379a00000000000000000000000000000000000000000000000000000000081526004016104af906109a6565b60405180910390fd5b60008273ffffffffffffffffffffffffffffffffffffffff16826040516104de906109f7565b60006040518083038185875af1925050503d806000811461051b576040519150601f19603f3d011682016040523d82523d6000602084013e610520565b606091505b5050905080610564576040517f08c379a000000000000000000000000000000000000000000000000000000000815260040161055b90610a58565b60405180910390fd5b8273ffffffffffffffffffffffffffffffffffffffff167fdf273cb619d95419a9cd0ec88123a0538c85064229baa6363788f743fff90deb83426040516105ac92919061089f565b60405180910390a2505050565b6000819050919050565b6105cc816105b9565b82525050565b60006020820190506105e760008301846105c3565b92915050565b600073ffffffffffffffffffffffffffffffffffffffff82169050919050565b6000610618826105ed565b9050919050565b6106288161060d565b82525050565b6000602082019050610643600083018461061f565b92915050565b600080fd5b6106578161060d565b811461066257600080fd5b50565b6000813590506106748161064e565b92915050565b6000602082840312156106905761068f610649565b5b600061069e84828501610665565b91505092915050565b60006106b2826105ed565b9050919050565b6106c2816106a7565b81146106cd57600080fd5b50565b6000813590506106df816106b9565b92915050565b6106ee816105b9565b81146106f957600080fd5b50565b60008135905061070b816106e5565b92915050565b6000806040838503121561072857610727610649565b5b6000610736858286016106d0565b9250506020610747858286016106fc565b9150509250929050565b600082825260208201905092915050565b7f446f6e6174696f6e20616d6f756e74206d75737420626520677265617465722060008201527f7468616e207a65726f2e00000000000000000000000000000000000000000000602082015250565b60006107be602a83610751565b91506107c982610762565b604082019050919050565b600060208201905081810360008301526107ed816107b1565b9050919050565b7f4e487b7100000000000000000000000000000000000000000000000000000000600052601160045260246000fd5b600061082e826105b9565b91507fffffffffffffffffffffffffffffffffffffffffffffffffffffffffffffffff82036108605761085f6107f4565b5b600182019050919050565b6000610876826105b9565b9150610881836105b9565b9250828201905080821115610899576108986107f4565b5b92915050565b60006040820190506108b460008301856105c3565b6108c160208301846105c3565b9392505050565b7f4f6e6c7920746865206f776e65722063616e2063616c6c20746869732066756e60008201527f6374696f6e2e0000000000000000000000000000000000000000000000000000602082015250565b6000610924602683610751565b915061092f826108c8565b604082019050919050565b6000602082019050818103600083015261095381610917565b9050919050565b7f496e73756666696369656e742066756e64732e00000000000000000000000000600082015250565b6000610990601383610751565b915061099b8261095a565b602082019050919050565b600060208201905081810360008301526109bf81610983565b9050919050565b600081905092915050565b50565b60006109e16000836109c6565b91506109ec826109d1565b600082019050919050565b6000610a02826109d4565b9150819050919050565b7f5769746864726177616c206661696c65642e0000000000000000000000000000600082015250565b6000610a42601283610751565b9150610a4d82610a0c565b602082019050919050565b60006020820190508181036000830152610a7181610a35565b905091905056fea26469706673582212200a7f175b47ea9a2f485f0fae74838474dabc139e51621bfd0459ed468175653164736f6c63430008130033",
  "immutableReferences": {},
  "source": "// SPDX-License-Identifier: MIT\npragma solidity ^0.8.19;\n\ncontract Donation {\n    address public owner;\n    mapping(address => uint256) public donors;\n    mapping(address => bool) private hasDonated; // To track unique donors\n    uint256 public totalDonations;\n    uint256 public donorCount; // To store the count of unique donors\n\n    event DonationReceived(address indexed donor, uint256 amount, uint256 timestamp);\n    event Withdrawal(address indexed to, uint256 amount, uint256 timestamp);\n\n    constructor() {\n        owner = msg.sender;\n    }\n\n    modifier onlyOwner() {\n        require(msg.sender == owner, \"Only the owner can call this function.\");\n        _;\n    }\n\n    function donate() external payable {\n        require(msg.value > 0, \"Donation amount must be greater than zero.\");\n        \n        // If this is the first time a user is donating, increment the unique donor count\n        if (!hasDonated[msg.sender]) {\n            hasDonated[msg.sender] = true;\n            donorCount++;\n        }\n\n        donors[msg.sender] += msg.value;\n        totalDonations += msg.value;\n        emit DonationReceived(msg.sender, msg.value, block.timestamp);\n    }\n\n    function withdraw(address payable _to, uint256 _amount) external onlyOwner {\n        require(_amount <= address(this).balance, \"Insufficient funds.\");\n        (bool success, ) = _to.call{value: _amount}(\"\");\n        require(success, \"Withdrawal failed.\");\n        emit Withdrawal(_to, _amount, block.timestamp);\n    }\n\n    // --- Getter Functions ---\n\n    function getContractBalance() external view returns (uint256) {\n        return address(this).balance;\n    }\n\n    // New function to get the unique donor count\n    function getDonorCount() external view returns (uint256) {\n        return donorCount;\n    }\n}\n\n",
  "sourcePath": "/Users/bijaythapa/Desktop/MAIN/COLLEGE-NOTES/4th year/7th sem/Major Project/secure-aid/contracts/Donation.sol",
  "compiler": {
    "name": "solc",
    "version": "0.8.19+commit.7dd6d404.Emscripten.clang"
  },
  "schemaVersion": "3.4.16",
  "updatedAt": "2025-12-31T02:33:32.261Z",
  "networkType": "ethereum",
  "devdoc": {
    "kind": "dev",
    "methods": {},
    "version": 1
  },
  "userdoc": {
    "kind": "user",
    "methods": {},
    "version": 1
  }
}